:020000040000FA
:10000000680D0120F1E1000047E30500C5E10000B3
:10001000C5E10000C5E10000C5E10000C5E1000048
:1000200000000000000000000000000029DA0000CD
:10003000C5E1000000000000CDD90000C5E10000CE
:10004000ADDA0000ADDA0000ADDA0000ADDA000094
:10005000ADDA0000ADDA0000ADDA0000ADDA000084
:10006000ADDA0000ADDA0000ADDA0000ADDA000074
:10007000ADDA0000ADDA0000ADDA0000ADDA000064
:10008000ADDA0000ADDA0000ADDA0000ADDA000054
:10009000ADDA0000ADDA0000ADDA0000ADDA000044
:1000A000ADDA0000ADDA0000ADDA0000ADDA000034
:1000B000ADDA0000ADDA0000ADDA0000ADDA000024
:1000C000ADDA0000ADDA0000ADDA0000ADDA000014
:1000D000ADDA0000ADDA0000ADDA0000ADDA000004
:1000E000ADDA0000ADDA0000ADDA0000ADDA0000F4
:1000F000ADDA0000ADDA0000ADDA0000ADDA0000E4
:10010000ADDA0000ADDA0000ADDA0000ADDA0000D3
:10011000ADDA0000ADDA0000ADDA0000ADDA0000C3
:10012000ADDA0000ADDA0000ADDA0000ADDA0000B3
:10013000ADDA0000ADDA0000ADDA0000ADDA0000A3
:10014000ADDA0000ADDA0000ADDA0000ADDA000093
:10015000ADDA0000FFFFFFFF81F0004102E000BFC9
:1001600083F0004330B54FEA41044FEA430594EA77
:10017000050F08BF90EA020F1FBF54EA000C55EAB2
:10018000020C7FEA645C7FEA655C00F0E2804FEA83
:100190005454D4EB5555B8BF6D420CDD2C4480EA65
:1001A000020281EA030382EA000083EA010180EA95
:1001B000020281EA0303362D88BF30BD11F0004FE3
:1001C0004FEA01314FF4801C4CEA113102D0404219
:1001D00061EB410113F0004F4FEA03334CEA133354
:1001E00002D0524263EB430394EA050F00F0A7806C
:1001F000A4F10104D5F1200E0DDB02FA0EFC22FA67
:1002000005F2801841F1000103FA0EF2801843FA5A
:1002100005F359410EE0A5F120050EF1200E012A4B
:1002200003FA0EFC28BF4CF0020C43FA05F3C01889
:1002300051EBE37101F0004507D54FF0000EDCF102
:10024000000C7EEB00006EEB0101B1F5801F1BD3AB
:10025000B1F5001F0CD349085FEA30004FEA3C0CAF
:1002600004F101044FEA445212F5800F80F09A80A5
:10027000BCF1004F08BF5FEA500C50F1000041EBA9
:10028000045141EA050130BD5FEA4C0C404141EBAD
:100290000101013C28BFB1F5801FE9D291F0000FA8
:1002A00004BF01460020B1FA81F308BF2033A3F157
:1002B0000B03B3F120020CDA0C3208DD02F1140C4E
:1002C000C2F10C0201FA0CF021FA02F10CE002F189
:1002D0001402D8BFC2F1200C01FA02F120FA0CFC82
:1002E000DCBF41EA0C019040E41AA2BF01EB0451CB
:1002F000294330BD6FEA04041F3C1CDA0C340EDCC9
:1003000004F11404C4F1200220FA04F001FA02F30B
:1003100040EA030021FA04F345EA030130BDC4F1C9
:100320000C04C4F1200220FA02F001FA04F340EABE
:100330000300294630BD21FA04F0294630BD94F06F
:10034000000F83F4801306BF81F480110134013D56
:100350004EE77FEA645C18BF7FEA655C29D094EAC7
:10036000050F08BF90EA020F05D054EA000C04BF45
:100370001946104630BD91EA030F1EBF0021002030
:1003800030BD5FEA545C05D14000494128BF41F0CF
:10039000004130BD14F580043CBF01F5801130BD33
:1003A00001F0004545F0FE4141F470014FF00000BE
:1003B00030BD7FEA645C1ABF194610467FEA655C6F
:1003C0001CBF0B46024650EA013406BF52EA033511
:1003D00091EA030F41F4002130BD00BF90F0000FFF
:1003E00004BF0021704730B54FF4806404F132043B
:1003F0004FF000054FF0000150E700BF90F0000FF4
:1004000004BF0021704730B54FF4806404F132041A
:1004100010F0004548BF40424FF000013EE700BFEA
:1004200042004FEAE2014FEA31014FEA02701FBF7A
:1004300012F07F4393F07F4F81F06051704732F0AC
:100440007F4208BF704793F07F4F04BF41F4002103
:10045000704730B54FF4607401F0004521F0004161
:100460001CE700BF50EA010208BF704730B54FF0EB
:1004700000050AE050EA010208BF704730B511F0EC
:10048000004502D5404261EB41014FF4806404F124
:1004900032045FEA915C3FF4D8AE4FF003025FEAAA
:1004A000DC0C18BF03325FEADC0C18BF033202EB2E
:1004B000DC02C2F1200300FA03FC20FA02F001FA88
:1004C00003FE40EA0E0021FA02F11444BDE600BF2B
:1004D00070B54FF0FF0C4CF4E06C1CEA11541DBFDA
:1004E0001CEA135594EA0C0F95EA0C0F00F0DEF8A5
:1004F0002C4481EA030621EA4C5123EA4C5350EA8A
:10050000013518BF52EA033541F4801143F48013DA
:1005100038D0A0FB02CE4FF00005E1FB02E506F06B
:100520000042E0FB03E54FF00006E1FB03569CF0C0
:10053000000F18BF4EF0010EA4F1FF04B6F5007FC6
:1005400064F5407404D25FEA4E0E6D4146EB060638
:1005500042EAC62141EA55514FEAC52040EA5E50C1
:100560004FEACE2EB4F1FD0C88BFBCF5E06F1ED86B
:10057000BEF1004F08BF5FEA500E50F1000041EBA2
:10058000045170BD06F0004646EA010140EA02004F
:1005900081EA0301B4EB5C04C2BFD4EB0C0541EA71
:1005A000045170BD41F480114FF0000E013C00F386
:1005B000AB8014F1360FDEBF002001F0004170BDAA
:1005C000C4F10004203C35DA0C341BDC04F11404C3
:1005D000C4F1200500FA05F320FA04F001FA05F24F
:1005E00040EA020001F0004221F0004110EBD3701C
:1005F00021FA04F642EB06015EEA430E08BF20EA48
:10060000D37070BDC4F10C04C4F1200500FA04F3EA
:1006100020FA05F001FA04F240EA020001F000417C
:1006200010EBD37041F100015EEA430E08BF20EAEF
:10063000D37070BDC4F1200500FA05F24EEA020E37
:1006400020FA04F301FA05F243EA020321FA04F066
:1006500001F0004121FA04F220EA020000EBD3701D
:100660005EEA430E08BF20EAD37070BD94F0000F1D
:100670000FD101F00046400041EB010111F4801F51
:1006800008BF013CF7D041EA060195F0000F18BF02
:10069000704703F00046520043EB030313F4801F3E
:1006A00008BF013DF7D043EA0603704794EA0C0FF8
:1006B0000CEA135518BF95EA0C0F0CD050EA41060E
:1006C00018BF52EA4306D1D181EA030101F000418B
:1006D0004FF0000070BD50EA410606BF10461946B3
:1006E00052EA430619D094EA0C0F02D150EA0136BF
:1006F00013D195EA0C0F05D152EA03361CBF104600
:1007000019460AD181EA030101F0004141F0FE419E
:1007100041F470014FF0000070BD41F0FE4141F422
:10072000780170BD70B54FF0FF0C4CF4E06C1CEA22
:1007300011541DBF1CEA135594EA0C0F95EA0C0FD7
:1007400000F0A7F8A4EB050481EA030E52EA033592
:100750004FEA013100F088804FEA03334FF08055B3
:1007600045EA131343EA12634FEA022245EA1115E0
:1007700045EA10654FEA00260EF000419D4208BF91
:10078000964244F1FD0404F5407402D25B084FEA3E
:100790003202B61A65EB03055B084FEA32024FF4EA
:1007A00080104FF4002CB6EB020E75EB030E22BF47
:1007B000B61A754640EA0C005B084FEA3202B6EB07
:1007C000020E75EB030E22BFB61A754640EA5C00B6
:1007D0005B084FEA3202B6EB020E75EB030E22BF46
:1007E000B61A754640EA9C005B084FEA3202B6EB47
:1007F000020E75EB030E22BFB61A754640EADC0006
:1008000055EA060E18D04FEA051545EA16754FEA67
:1008100006164FEAC30343EA52734FEAC2025FEA85
:100820001C1CC0D111F4801F0BD141EA00014FF014
:1008300000004FF0004CB6E711F4801F04BF0143E5
:100840000020B4F1FD0C88BFBCF5E06F3FF6AFAE01
:10085000B5EB030C04BFB6EB020C5FEA500C50F191
:10086000000041EB045170BD0EF0004E4EEA113114
:1008700014EB5C04C2BFD4EB0C0541EA045170BD1B
:1008800041F480114FF0000E013C90E645EA060E5F
:100890008DE60CEA135594EA0C0F08BF95EA0C0F8D
:1008A0003FF43BAF94EA0C0F0AD150EA01347FF4D5
:1008B00034AF95EA0C0F7FF425AF104619462CE7AC
:1008C00095EA0C0F06D152EA03353FF4FDAE10460F
:1008D000194622E750EA410618BF52EA43067FF460
:1008E000C5AE50EA41047FF40DAF52EA43057FF4F0
:1008F000EBAE12E74FF0FF3C06E000BF4FF0010CFB
:1009000002E000BF4FF0010C4DF804CD4FEA410C5E
:100910007FEA6C5C4FEA430C18BF7FEA6C5C1BD02B
:1009200001B050EA410C0CBF52EA430C91EA030FAC
:1009300002BF90EA020F0020704710F1000F91EA09
:10094000030F58BF994208BF90422CBFD8176FEAD7
:10095000E37040F0010070474FEA410C7FEA6C5CA5
:1009600002D150EA013C07D14FEA430C7FEA6C5CAC
:10097000D6D152EA033CD3D05DF8040B704700BFD8
:100980008446104662468C461946634600E000BF26
:1009900001B5FFF7B7FF002848BF10F1000F01BDF8
:1009A0004DF808EDFFF7F4FF0CBF012000205DF8C3
:1009B00008FB00BF4DF808EDFFF7EAFF34BF012048
:1009C00000205DF808FB00BF4DF808EDFFF7E0FFE1
:1009D00094BF012000205DF808FB00BF4DF808ED32
:1009E000FFF7CEFF94BF012000205DF808FB00BF99
:1009F0004DF808EDFFF7C4FF34BF012000205DF87B
:100A000008FB00BF4FEA4102B2F1E04324BFB3F557
:100A1000001CDCF1FE5C0DD901F0004C4FEAC00275
:100A20004CEA5070B2F1004F40EB830008BF20F059
:100A30000100704711F0804F21D113F13872BCBF13
:100A400001F00040704741F480114FEA5252C2F168
:100A50001802C2F1200C10FA0CF320FA02F018BFB1
:100A600040F001004FEAC1234FEAD32303FA0CFC04
:100A700040EA0C0023FA02F34FEA4303CCE77FEA93
:100A8000625307D150EA01331EBF4FF0FE4040F4DD
:100A90004000704701F0004040F0FE4040F400008C
:100AA000704700BF7BB972B90029BEBF00204FF06C
:100AB000004106E008BF00281CBF6FF000414FF066
:100AC000FF3000F075B8ADF1080C6DE904CE0029D7
:100AD00009DB002B1ADB01F0D4F8DDF804E0DDE9D6
:100AE000022304B07047404261EB4101002B1BDB45
:100AF00001F0C7F8DDF804E0DDE9022304B040426C
:100B000061EB4101524263EB43037047524263EB96
:100B1000430301F0B6F8DDF804E0DDE9022304B098
:100B2000404261EB41017047524263EB430301F0E5
:100B3000A8F8DDF804E0DDE9022304B0524263EBDB
:100B40004303704753B94AB9002908BF00281CBFA6
:100B50004FF0FF314FF0FF3000F02AB8ADF1080C34
:100B60006DE904CE01F08DF8DDF804E0DDE9022343
:100B700004B07047D0B500220B4B06460F46FFF776
:100B8000A7FC00F017F80446FFF728FC0022074BEB
:100B9000FFF79EFC02460B4630463946FFF7E0FA67
:100BA00000F008F82146D0BD0000F03D0000F04103
:100BB000704700BF4A0011D212F5001211D20DD5B4
:100BC0006FF47873B3EB62520ED44FEAC12343F053
:100BD000004343EA505323FA02F070474FF00000FD
:100BE000704750EA013002D14FF0FF3070474FF0AC
:100BF00000007047844641EA000313F0030349D123
:100C0000403A23D30B6803604B6843608B68836072
:100C1000CB68C3600B6903614B6943618B69836176
:100C2000CB69C3610B6A03624B6A43628B6A83625E
:100C3000CB6AC3620B6B03634B6B43638B6B836346
:100C4000CB6BC36340304031403ADBD230320BD300
:100C50000B6803604B6843608B688360CB68C3603C
:100C600010301031103AF3D20C3205D351F8043B56
:100C700040F8043B043AF9D2043208D0D2071CBF32
:100C800011F8013B00F8013B01D30B88038060465B
:100C9000704700BF082A13D38B07B1D010F00303AD
:100CA000AED0C3F10403D21ADB071CBF11F8013B1D
:100CB00000F8013BA4D331F8023B20F8023B9FE748
:100CC000043AD9D3013A11F8013B00F8013BF9D2BB
:100CD0000B7803704B7843708B7883706046704755
:100CE00080EA010C1CF0030F37D110F0030C20F048
:100CF000030021F0030150F8042B08BF51F8043B16
:100D00000ED08CF0030C6FF07F434FEACC0C23FA2B
:100D10000CFC51F8043B42EA0C0243EA0C0300BF0E
:100D2000A2F1013C9A4201BF2CEA020C1CF0803F68
:100D300050F8042B51F8043BF2D04FEA02604FEA1E
:100D40001222012828BFB0EB036F08BF1B0AF4D0A2
:100D500003F0FF03000EC01A704710F0030F0AD013
:100D600010F8012B11F8013B012A28BF9A42F4D058
:100D7000A2EB030070474DF8045D50F8042B01F01E
:100D8000030521F0030151F8043B022D26D04DD874
:100D900022F07F45B5EB132FA2F1013C2CEA020CA7
:100DA0000DD11CF0803C08BF51F8043B0AD185EA04
:100DB0000205B5EB036F0CD150F8042BE8E74FEABE
:100DC00013235BE03CF07F4C54D10B784FEA126563
:100DD00054E04FEA126503F0FF034FE04FEA02458B
:100DE000A2F1013C4FEA15452CEA020CB5EB134F7A
:100DF00018D11CF0803C08BF51F8043B07D185EAAC
:100E00000205B5EB034F09D150F8042BE6E75FEA82
:100E10000C4C2FD10B884FEA12452FE04FEA0343C9
:100E20004FEA12454FEA134328E000BF02F0FF05E6
:100E3000B5EB136FA2F1013C2CEA020C0DD11CF0B2
:100E4000803C08BF51F8043B0AD185EA0205B5EBA6
:100E5000032F0AD150F8042BE8E74FEA13630DE0A3
:100E600012F0FF0F06D051F8043B4FEA122523F091
:100E70007F4303E04FF0000020BC704705F0FF0205
:100E800003F0FF00012828BF904204BF2D0A1B0A6F
:100E9000F4D0A2EB000020BC704700BF4FEA410C29
:100EA0007FEA6C5C02D150EA013C0AD14FEA430C64
:100EB0007FEA6C5C02D152EA033C02D14FF00000A1
:100EC00070474FF0010070474FEA410212F50012DF
:100ED00015D211D56FF47873B3EB625212D94FEA81
:100EE000C12343F0004343EA505311F0004F23FA6B
:100EF00002F018BF404270474FF00000704750EAC0
:100F0000013005D111F0004008BF6FF0004070477C
:100F10004FF00000704700BF2DE9F14F03F11C04B2
:100F200002EB840C4FEA930B8A68CB680868496827
:100F300000F046F93CE9F0006040694072407B40B7
:100F40000BF1060E4EE083EA134480EA134582EA71
:100F5000134746BA96EA3444604000F00F1684EA1C
:100F6000063420F00F1684EA161054BA94EA0106EB
:100F7000724002F00F1486EA043622F00F1486EA5B
:100F800014124CBA6540694001F00F1485EA04352B
:100F900021F00F1485EA14115CBA67407B4003F01E
:100FA0000F1487EA043723F00F1487EA141344BAA6
:100FB00044404DBA4D4056BA56405FBA5F4087EA4A
:100FC000174886EA174B84EA17464FEA38488BEAF7
:100FD0001B4485EA1B4788EA1B4580EA3440694088
:100FE00072407B4000F0703400F0803500F00F302C
:100FF00040EA440040EAD50080EA900404F033243B
:1010000080EA8400604001F0703401F0803501F026
:101010000F3141EA440141EAD50181EA910404F02B
:10102000332481EA8401614002F0703402F080359B
:1010300002F00F3242EA440242EAD50282EA920406
:1010400004F0332482EA8402624003F0703403F037
:10105000803503F00F3343EA440343EAD50383EAC0
:10106000930404F0332483EA84036340C943DB43DD
:1010700081EA000483EA044686EA020183EA014326
:1010800082EA334583EA14435C4084EA00077FEA3E
:10109000040A8AEA024A8AEA010B87EA11488AEAC4
:1010A000374A80EA060181EA1A418AEA030A04EA19
:1010B0000A00454088EA040707EA0B0041408AEA33
:1010C0000B0608EA060084EA34428AEA3A4602EA53
:1010D000060358404540414087EA37438BEA3B408E
:1010E00003EA000985EA090582EA0309464006EA9F
:1010F0000906714085EA010005EA3546464006EAE0
:10110000314181EA304181EA364606EA304686EAD4
:10111000354634400F4086EA010508EA050886EAAC
:101120003640024088EA020881EA314213405C40BE
:1011300080EA020309EA030987EA0907674088EAA7
:10114000040806EA0A0601EA0B018AEA0B042540B4
:101150008AEA3A44204045408BEA3B4B02EA0B02C4
:10116000564084EA0B04234059406E40694087EAA8
:10117000364080EA384080EA060380EA104481EA7B
:10118000134585EA344585EA17427D4082EA3541B8
:1011900080EA05403CE9F0006040694072407B40D5
:1011A000BEF1010E3FF6CFAE20BC00F05FF8286024
:1011B0006960AA60EB60BDE8F08F00BF00F000BA84
:1011C00080EA101404F0F01480EA0410604081EA10
:1011D000111404F0F01481EA0411614082EA12143F
:1011E00004F0F01482EA0412624083EA131404F05B
:1011F000F01483EA0413634080EA102404F47F446B
:1012000080EA0420604081EA112404F47F4481EAEA
:101210000421614082EA122404F47F4482EA042219
:10122000624083EA132404F47F4483EA0423634086
:1012300081EA500404F0553480EA4400614083EAB6
:10124000520404F0553482EA4402634082EA900476
:1012500004F0333480EA8400624083EA910404F0AD
:10126000333481EA84016340704700BF82EA90040E
:1012700004F0333480EA8400624083EA910404F08D
:10128000333481EA8401634081EA500404F0553428
:1012900080EA4400614083EA520404F0553482EA53
:1012A0004402634080EA102404F47F4480EA04206E
:1012B000604081EA112404F47F4481EA0421614002
:1012C00082EA122404F47F4482EA0422624083EA20
:1012D000132404F47F4483EA0423634080EA101457
:1012E00004F0F01480EA0410604081EA111404F064
:1012F000F01481EA0411614082EA121404F0F0143F
:1013000082EA0412624083EA131404F0F01483EAC0
:1013100004136340704700BF2DE9F14F94464FEA34
:10132000930B8A68CB6808684968FFF749FF0BF19F
:10133000060E33E083EA134480EA134582EA13473A
:1013400046BA96EA3444604000F00F1684EA063448
:1013500020F00F1684EA161054BA94EA010672407F
:1013600002F00F1486EA043622F00F1486EA1412F3
:101370004CBA6540694001F00F1485EA043521F04C
:101380000F1485EA14115CBA67407B4003F00F1418
:1013900087EA043723F00F1487EA1413BCE8F0003F
:1013A0006040694072407B4000F0E03400F010354E
:1013B00000F00F3040EA540040EAC50080EA900493
:1013C00004F0332480EA8400604001F0E03401F04E
:1013D000103501F00F3141EA540141EAC50181EABB
:1013E000910404F0332481EA8401614002F0E03486
:1013F00002F0103502F00F3242EA540242EAC5020E
:1014000082EA920404F0332482EA8402624003F008
:10141000E03403F0103503F00F3343EA540343EA9A
:10142000C50383EA930404F0332483EA840363400E
:1014300081EA324787EA134581EA354690EA060495
:1014400084EA034B82EA1B4280EA044484EA0544AE
:1014500083EA144A85EA14448BEA044B84EA37444D
:1014600081EA0B4181EA164104EA0A00454082EA1A
:1014700004082BEA080041408AEA0B0602EA06004B
:1014800084EA34438AEA3A4603EA0607784045404C
:10149000414088EA38478BEA3B4007EA000985EA81
:1014A000090583EA0709464006EA0906714085EA0C
:1014B000010005EA3546464006EA314181EA3041FD
:1014C00081EA364606EA304686EA3546344008EA7E
:1014D000010886EA01052A4086EA364003405A4060
:1014E00081EA31431F407C4080EA030709EA07098B
:1014F00088EA0908544088EA020806EA0A0601EA6E
:101500000B018AEA0B0215408AEA3A421040454034
:101510008BEA3B4003405E404240174079404D40DB
:101520004E40E443F64386EA18435D4085EA0540B1
:1015300083EA134386EA034183EA384284EA11438B
:1015400083EA04435FEA3343BEF1010E3FF6F2AE95
:101550001ED4BCE8F0006040694072407B4020BC73
:10156000FFF784FE28606960AA60EB60BDE8F08F39
:101570002DE9E0414FF2F00280EA1031114080EA9B
:101580000130484041088208C3084FF0000E4FE781
:1015900000F0113001F0113102F0113203F011337B
:1015A00040EA410040EA820040EAC3004FF2F00204
:1015B00080EA1031114080EA01304840BDE8E08106
:1015C0002DE9F04F02F11C050646074600EB8508A1
:1015D00051F8040B043A46F8040BF9D14FF0010C12
:1015E000FFF7C6FF5FEA302080EA0C001ECF4140C3
:1015F0004A4053405C401EC62000464517D04FEA83
:101600004C0C1CF4807F18BFACF1E50C2C2DE7D0FE
:101610003C2D06D1FFF7ACFF06CF41404A4006C63D
:10162000100006CF41404A4006C61000D8E736E910
:101630000F00FFF7C5FD043D86E80F00F7D1BDE8B8
:10164000F08F00BF2DE9F04FB0E8FE0783B02DE921
:10165000010790E8005F4FF00A0006900198DB193F
:101660009CEA030C18EB3C4897EA080713EB375346
:1016700093EA3C4C18EB3C6898EA375724189EEAEA
:10168000040E19EB3E4990EA090014EB305494EA39
:101690003E4E19EB3E6999EA3050CDE90489DDE907
:1016A000028949199AEA010A18EB3A4895EA0805AD
:1016B00011EB355191EA3A4A18EB3A6898EA3555F8
:1016C00092199BEA020B19EB3B4996EA090612EBC9
:1016D000365292EA3B4B19EB3B6999EA365613EBCB
:1016E000706393EA3B6B18EB3B4898EA706013EB2E
:1016F000305393EA3B4B5FEA3B6B18EB0B0898EADD
:1017000030505FEA706014EB756494EA3C6C19EB3E
:101710003C4999EA756514EB355494EA3C4C5FEA10
:101720003C6C19EB0C0999EA35555FEA7565CDE912
:101730000289DDE9048911EB766191EA3E6E18EBCE
:101740003E4898EA766611EB365191EA3E4E5FEAE2
:101750003E6E18EB0E0898EA36565FEA766612EB94
:10176000776292EA3A6A19EB3A4999EA776712EB9B
:10177000375292EA3A4A5FEA3A6A19EB0A0999EA59
:1017800037575FEA77670190069801387FF465AFB5
:1017900001BC80E8005FBDE8000700E9FE0703B078
:1017A000BDE8F08F30B44FF0000310F8014B11F892
:1017B000015B013A84EA050443EA0403F5D1A3F18D
:1017C00001034FEAD37030BC704700BF4FF00003F5
:1017D00010F8012B013943EA0203F9D1A3F1010307
:1017E0004FEAD370704700BF30B411F8014B12F8C4
:1017F000015B6C4000F8014B013BF6D130BC7047F7
:101800002DE9F14FF8C892E8005E19EB03095AEB95
:10181000040A5BEB050B5CEB060C4EEB070E91E844
:10182000E001A9FB0502AAFB0543E9FB6624EAFBEC
:101830006634A9FB0765E9FB6845B1E80003EBFBEB
:101840006836ECFB6846EEFB6856ABFB0987ECFBA1
:101850006957EEFB696791E80202EAFB6148EBFB1E
:101860006158ECFB6168EEFB61784FF00001EAFB28
:101870000951EBFB6961ECFB6971EEFB69814FF487
:10188000A03C4FEA154949EA06495FF0000AE9FB26
:101890000C0A4FEA164646EA0746E6FB6C2A4FEA70
:1018A000174747EA0847E7FB6C3A4FEA184848EA07
:1018B0000148E8FB6C4AADB25544AF0805F003059A
:1018C00007EB8707C01952F1000153F1000254F1F0
:1018D000000345F1000420BC1FC5BDE8F08F00BF28
:1018E00030B490E83C10511D53F1000154F1000157
:1018F00055F100014CF100014FEA9101494201F01C
:101900000501521853F1000354F1000455F100058C
:101910004CF1000C0CF0030C80E83C1030BC70471C
:101920002DE9F04F90E8F00F00F140004FF0040E69
:1019300059E0F0B4826BC36B0468052524268759EF
:101940003C444FEA724787EAF24787EA92273C44D1
:1019500042684FEAF21787EAB24787EAD2073C4467
:1019600040F8044B032D08BF6FF01B0687593A441B
:101970004FEA734787EAF34787EA93273A44436875
:101980004FEAF31787EAB34787EAD3073A4440F8A8
:10199000042B87593B444FEA744787EAF44787EAA8
:1019A00094273B4444684FEAF41787EAB44787EA30
:1019B000D4073B4440F8043B013DC0D1A0F13C00BA
:1019C000076A3C444FEA724787EAF24787EA922760
:1019D0003C4402684FEAF21787EAB24787EAD20727
:1019E0003C44C463F0BC4FF0020288EA781C8CEAE5
:1019F000F84C0BEBBC1C8AEA090303EA080383EAF0
:101A00000A039C4450F8043B9C4451F8043B9C441A
:101A1000674444EA050B0BEA060B04EA05034BEAAC
:101A2000030BE34484EAF42383EA34530BEBB30B54
:101A300087EA771C8CEAF74C0AEBBC1C89EA08039E
:101A400003EA070383EA09039C4450F8043B9C44DF
:101A500051F8043B9C4466444BEA040A0AEA050A2E
:101A60000BEA04034AEA030AE2448BEAFB2383EA13
:101A70003B530AEBB30A86EA761C8CEAF64C09EB78
:101A8000BC1C88EA070303EA060383EA08039C44B4
:101A900050F8043B9C4451F8043B9C4465444AEA9A
:101AA0000B0909EA04090AEA0B0349EA0309E144BC
:101AB0008AEAFA2383EA3A5309EBB30985EA751CEB
:101AC0008CEAF54C08EBBC1C87EA060303EA050325
:101AD00083EA07039C4450F8043B9C4451F8043BC0
:101AE0009C44644449EA0A0808EA0B0809EA0A0324
:101AF00048EA0308E04489EAF92383EA395308EB0A
:101B0000B30884EA741C8CEAF44C07EBBC1C86EA2C
:101B1000050303EA040383EA06039C4450F8043BEC
:101B20009C4451F8043B9C44E34448EA090707EA13
:101B30000A0708EA090347EA0307674488EAF82323
:101B400083EA385307EBB3078BEA7B1C8CEAFB4C28
:101B500006EBBC1C85EA040303EA0B0383EA0503D6
:101B60009C4450F8043B9C4451F8043B9C44E244A0
:101B700047EA080606EA090607EA080346EA0306F2
:101B8000664487EAF72383EA375306EBB3068AEA0B
:101B90007A1C8CEAFA4C05EBBC1C84EA0B0303EAC2
:101BA0000A0383EA04039C4450F8043B9C4451F824
:101BB000043B9C44E14446EA070505EA080506EAB9
:101BC000070345EA0305654486EAF62383EA3653AC
:101BD00005EBB30589EA791C8CEAF94C04EBBC1CD3
:101BE0008BEA0A0303EA090383EA0B039C4450F8D7
:101BF000043B9C4451F8043B9C44E04445EA060401
:101C000004EA070405EA060344EA0304644485EA97
:101C1000F52383EA355304EBB304013A7FF4E5AED0
:101C2000A0F14000BEF1010E7FF483AEA0F1400CA4
:101C30009CE80F00001949199219DB19ACE80F0054
:101C40009CE80F004044494452445B44ACE80F0018
:101C5000BDE8F08F38B50022002304460D46FEF79C
:101C6000A9FE28B920462946BDE83840FEF782BFC4
:101C7000204605F10041FEF77DFF404261EB410146
:101C800038BD2DE9F04786468C460846089E154625
:101C900074461946002B40F0C1808542B2FA82F2A8
:101CA00045D94AB1C2F1200300FA02FC95409440A4
:101CB0002EFA03F343EA0C0C4FEA154EA8B2230C9C
:101CC000BCFBFEF80EFB18CC08FB00F943EA0C4302
:101CD000994528D9EB1808F1FF3704D2994502D964
:101CE000A8F102072B44A3EB0903A4B2B3FBFEFC4B
:101CF0000EFB1C330CFB00F044EA0344A04214D951
:101D00002C190CF1FF3304D2A04202D9ACF102032A
:101D10002C44241A43EA07401EB1D4400023346007
:101D20007360BDE8F0874746DDE76346F1E792BBA5
:101D3000431B01214FEA154EAFB2200CB3FBFEFC52
:101D40000EFB1C330CFB07F840EA0343984561D9AE
:101D5000EB180CF1FF3004D2984502D9ACF1020027
:101D60002B44A3EB0803A4B2B3FBFEFC0EFB1C3315
:101D70000CFB07F744EA0344A7424DD92C190CF198
:101D8000FF3304D2A74202D9ACF102032C44E41B76
:101D900043EA0040C0E7C2F120039540944020FA96
:101DA00003F12EFA03F34FEA154E9040AFB203430E
:101DB000B1FBFEFC0EFB1C10190C0CFB07F841EAF2
:101DC0000041884522D969180CF1FF3004D28845BA
:101DD00002D9ACF102002944A1EB08019BB2B1FB8E
:101DE000FEFC0EFB1C110CFB07F743EA01439F426C
:101DF0000ED9EB180CF1FF3104D29F4202D9ACF19D
:101E000002012B44DB1B41EA004193E76046E3E714
:101E10006146F7E76046A4E76346B8E7834206D920
:101E200016B9002108467CE7C6E900E0F9E7B3FAF5
:101E300083F78FB9834201D3724508D8BEEB020401
:101E400060EB030301209C461EB9002169E7384678
:101E5000FAE7C6E9004CF8E7C7F1200CBB400EFAE0
:101E600007F522FA0CF42EFA0CF1BA401C4320FAC2
:101E70000CF3B8404FEA144901431FFA84FEB3FB48
:101E8000F9F809FB18300B0C08FB0EFA43EA004383
:101E90009A4540D9E31808F1FF3004D29A4502D997
:101EA000A8F102002344A3EB0A0389B2B3FBF9F8BB
:101EB00009FB183308FB0EFE41EA03418E452CD97D
:101EC000611808F1FF3304D28E4502D9A8F102034C
:101ED000214443EA0040A1EB0E01A0FB02984145DA
:101EE000CE46434602D306D14D4504D20138B9EB64
:101EF000020E68EB0403002EA7D0B5EB0E0261EBD7
:101F0000030101FA0CFC22FA07F3F9404CEA03033F
:101F1000C6E9003199E74046C5E74346D9E70000E6
:101F2000012870B50D4606D05CF06EFA16230360EA
:101F30004FF0FF3070BD6CF008FF1D4A2B686E68D3
:101F4000A3FB023402FB0644AD685B1944EBE57465
:101F5000C50B45EA4145A5FB0256C90B02FB0161D1
:101F60005B1BC0F30E0064EB0101A0FB0204C20B7B
:101F700042EA4442981A61F100010BA3D3E900231D
:101F8000FEF790FD4FF02003EFF3118483F31288E6
:101F9000BFF36F8F074BC3E900019A6084F3118888
:101FA000BFF36F8F0020C5E700CA9A3B0000000016
:101FB00000CA9A3BD02B0020F0B589B06B4D00AF22
:101FC000D5F85C31996811F001011AD140F603404F
:101FD0003A1D0DF085FB0446002840F0B880786873
:101FE00083681B785BB905F1CC03D3E8AF2F02F00F
:101FF0000902D3E8EF1FC3E8E42F002CF9D114F055
:102000005DFB002141F203003A1D0DF069FB04461F
:10201000002840F09C807B68554E9A68D2F80100F9
:10202000D2F8051003C6184614F048FB214641F2C9
:1020300001003A1D0DF054FB0446002840F0878053
:10204000786883685A7885F868205A88A5F86A20E5
:102050001A7985F86920B3F80720A5F86C20B3F841
:102060000530A5F86E3014F029FB214641F202003C
:102070003A1D0DF035FB0446002868D1D7F804C09E
:10208000DCF80820531C413234461868596808337C
:1020900003C493422646F7D1604614F00FFB0FF0BD
:1020A00071FA0446002852D195F88230980619D466
:1020B0003048036813F0060F09D02F4B4FF48451BA
:1020C000FB61022307F11802BB615CF078FA95F816
:1020D0007430590654D4274803685A073BD16FF02F
:1020E000120434E0072140F633400DF0BFFA0646F3
:1020F000002800F05081072108305EF01CFB6FF0D3
:10210000680303700623C0F80240847144700471B0
:102110002246C370314640F633400DF0E1FA0446E2
:10212000A8B9012140F631400DF0A0FA064600287A
:1021300000F03181012108305EF00CFB224631466F
:1021400040F631400DF0CCFA04460028BFD02046BE
:102150002437BD46F0BD094B4FF48251FB61022389
:1021600007F11802BB615CF02AFAB8E70000002012
:1021700070000020481200204CB507007AB5070017
:10218000002142F2030007F108020DF0A9FA04460B
:102190000028DCD1BB68AE4E9A68D2F80100D2F8B4
:1021A000051003C6184614F089FA214642F20200CF
:1021B00007F108020DF094FA04460028C7D1BC6864
:1021C000A368B3F8012091B2A5F8FC2029B1DA7810
:1021D000114606F128006CF0E0FA204614F06EFA81
:1021E00095F8746016F0200618D1022140F66D4073
:1021F0000DF03CFA0446002800F0CD8002210830A2
:102200005EF099FA0123214603704670324640F68B
:102210006D400DF065FA0446002898D195F8943089
:102220001B0713D5002142F21C0007F108020DF034
:1022300057FA044600288AD1B8688368D3F8012089
:10224000D3F80530C5E9362314F038FA95F8D030C4
:102250009E0622D5391DB81C0DF0C2FA044600288E
:102260007FF475AF042142F224000DF0FFF9064619
:10227000002800F09080042108305EF05CFA7B8832
:1022800022460380BB883146438042F224000DF091
:1022900027FA044600287FF45AAF95F8D0305C0640
:1022A00011D5002142F22A0007F108020DF018FAB8
:1022B000044600287FF44BAFB86883685B7885F8E4
:1022C000183114F0FBF9082142F201000DF0CEF9AB
:1022D000044600285FD0082108445EF02CFA95F8E7
:1022E000D01040F2022311F0400F08BF0323024632
:1022F00088074CBF43F02C0043F00C0095F8D13018
:102300008E0648BF40F0400013F0090F18BF40F49C
:102310000060CB0795F89A3048BF40F0100003F0FA
:102320000603062B08BF40F4C07000215CF052F990
:102330002146002242F201000DF0D2F904460028A5
:102340007FF405AF95F87430B5F8FC109E0625D4DF
:10235000D1B941F2050007F108020DF0C1F90446B8
:1023600000287FF4F4AEB5F8FC30BC684BB9A36824
:10237000B3F80120A5F8FC209A88364811466CF085
:102380000CFA204614F09AF9082140F601400DF0AD
:102390006DF90446B0B96FF06804D8E60029F3D1AE
:1023A0002D4803685C0702D16FF00404CFE62B4B85
:1023B0004FF48251FB61022307F11802BB615CF00C
:1023C000FEF8F1E7082108445EF0B5F995F8D03041
:1023D0000246D90734D44FF0005121485CF0FAF896
:1023E0002146002240F601400DF07AF9044600280B
:1023F0007FF4ADAE01463A1D4FF601400DF070F985
:10240000154C88B3236813F0060F0AD0154B4FF410
:102410008451FB6102232046BB6107F118025CF086
:10242000CEF80EF019FD044600287FF490AE10F0AF
:10243000D1F8044600287FF48AAE0DF0BDFF86E691
:1024400001A1D1E90001C9E79088000200800020C5
:10245000D000002000010020481200209EB5070097
:1024600010880002C1B507007B689D68236803F0EF
:102470000703022B68D9B5F801306E46032B98BFCD
:10248000514A8AB094BF52F8231050496A46D3612A
:102490004FF400734E4813844E4BC2E9050142F8D5
:1024A000103F4FF413514C485CF089F82368B5464F
:1024B00003F00703022B47D9B5F80120B5F8033024
:1024C000022A5BD1032B59D8444A52F823106E4696
:1024D0008AB06A46D3614FF40073414813843D4B80
:1024E000C2E9050142F8103F4FF413513A485CF03D
:1024F00066F82368B54603F00703022B24D96B79ED
:1025000095F806C0032B98BF364AB5F80760D5F892
:1025100009006D468CB094BF52F823102B496A46CF
:10252000C2E9073C4FF40073DFF8BCE093852F4B02
:10253000C2E905E1C2E909604FF47351264842F847
:10254000103F5CF03CF8AD46786814F0B7F8002115
:102550004FF602403A1D0DF0C3F8054680B12368DE
:1025600013F0060F3FF45DAF214BFB6102234FF4E4
:1025700084511948BB6107F1180250E71349A6E7D7
:1025800078681C4E8368B3F80130A6F8B93014F0AF
:1025900095F896F8B9305B077FF543AF29464FF6BB
:1025A00003403A1D0DF09CF830B1236813F0060F7C
:1025B0003FF437AF104BD8E7786883685B7886F8CC
:1025C000B83014F07BF82CE704470700D0AF0700C1
:1025D000E5B507000400000148120020F44607009A
:1025E000FEB50700E446070016B607000700000125
:1025F00043B60700000000206CB607000000000092
:102600002DE9F04F0C46D0F82011A3B00B6B154606
:1026100015905BBB159818A9276ED4F88060D5F883
:1026200080B066F06EF878B34FF0000A06F59C5360
:1026300008339B4522D82B6DB3F57A6F179355DD80
:10264000236DB3F57A6FACBF00230123002F1693DF
:102650004EDB0BF59C5308339E4200F24081BAF1E9
:10266000190F00F33C814FF0020877E00622183181
:1026700005F1200048F0C0FF0028CBD14FF0010841
:10268000404623B0BDE8F08FDDF870A0BAF1000F2E
:1026900004D1DDF86CA0BAF1000FC7D042F20F717F
:1026A0001D9B189A8B420AD16FF47A63D31840F2BB
:1026B000657293428CBF6FF058036FF05B03204646
:1026C000AAEB030864F00EFBD4F88C20034604F157
:1026D00094010AB9D4F89020206D5746CDE90080C6
:1026E000159836F04BFFC24606469FE70023ADE73C
:1026F0002B6E169A03EB42039F4215DD5846FDF7F9
:102700006DFE804630468946FDF768FE4FF0333255
:10271000774BFDF7DDFE02460B4640464946FEF785
:1027200049F9002840F0DB800BF59C5308339E42AA
:1027300000F2D580BAF1190F00F3D18017F1550FCF
:1027400069DB17F1500F8EDB17F14B0F66DB17F1CA
:10275000460FB4BF4FF004084FF005083046FDF7B0
:102760003DFE814658468A46FDF738FE02460B4636
:10277000CDE9122300225F4BFDF7AAFE02460B466D
:1027800048465146FEF734F900284AD008F10A08B5
:10279000169B0BB1A8F102082B6E0321CDE9103B6B
:1027A000DA1B179B90450F9395F82530524A0E93EC
:1027B00095F82430C8BF4FF000080D9395F82330EA
:1027C000D8BF4FF001080C9395F822300B9395F881
:1027D00021300A9395F820300797CDE90863236DDF
:1027E000069394F82530059394F82430049394F8D4
:1027F0002330039394F82230029394F8213001930C
:1028000094F8203000933D4B1598C8BF13463C4ABE
:1028100040F0DEF934E74FF001089FE74FF003087E
:102820009CE74FF03332DDE91201314BFDF750FEEA
:1028300002460B4648465146FEF7DAF810B108F159
:102840000508A5E728A3D3E90023DDE91201FDF778
:102850003FFE02460B4648465146FEF7C9F810B106
:1028600008F1020894E7B34502D208F101088FE7A6
:102870000022204B48465146FDF72AFE02460B46F1
:10288000DDE91201FEF7B4F810B1A8F10A087FE7FC
:102890004FF03332164B48465146FDF719FE0246BB
:1028A0000B46DDE91201FEF7A3F810B1A8F1050807
:1028B0006EE70DA3D3E9002348465146FDF708FE15
:1028C00002460B46DDE91201FEF792F810B1A8F1BD
:1028D00002085DE7B34588BF08F1FF3858E74FF0BD
:1028E0000008CDE6AFF300809A9999999999F13F44
:1028F0003333F33F0000F83FD8DF0800C4DF08009F
:10290000EEDF0800000000002DE9F04F016C9BB0E5
:1029100016461F46279D0490CDE9026749B1426CD7
:102920000123044693404A608B604FF035FA002340
:102930002364B7F10009C0F2B68000232B607E4B00
:1029400033EA090300F0BA800022DDE902341846B8
:1029500021460023CDE90801FEF722F8804668B140
:102960000123269A1360289B13B1744B289A136095
:10297000DFF8CC8140461BB0BDE8F08F18AB04985F
:10298000019319AB0093DDE908234FF00BFE83465A
:102990005FEA195540F0A980DDE91885454405F244
:1029A0003243202B40F34D82C3F1400309FA03F96F
:1029B00005F2124326FA03F349EA0300FDF70EFD80
:1029C000013D0123A1F1F871109300225D4BFDF749
:1029D000C7FB53A3D3E90023FDF77AFD52A3D3E944
:1029E0000023FDF7BFFB06460F462846FDF706FD10
:1029F0004FA3D3E90023FDF76BFD02460B4630469B
:102A00003946FDF7AFFB06460F46FEF75DFA00229A
:102A10008246002330463946FDF7CCFF002840F0BF
:102A20000382A8EB0508BAF1160F08F1FF330693ED
:102A300000F2A781444E06EBCA06DDE90801D6E99B
:102A40000023FDF7B7FF002800F0848000230AF17F
:102A5000FF3A0F9308F1FF33002BC0F29981002356
:102A60000A93BAF1000F7BDA0A9BCDF82CA0A3EBF6
:102A70000A030A93CAF100034FF0000A0E93249B45
:102A8000092B77D8052B40F3E181043B00272493E1
:102A9000249B023B032B00F25986DFE813F0540419
:102AA000510447042C04012329F000492B60224BD8
:102AB000CDF80C9033EA09037FF446AFC9F313094C
:102AC00042F20F73269A59EA060913601DD0289B1B
:102AD000DFF87880002B3FF44DAF08F10303289A0C
:102AE000404613601BB0BDE8F08FDDE90812CDF859
:102AF0004080A5F2FF35C2F313030846DDF860807D
:102B000043F07F5141F440115FE7289BDFF840809C
:102B1000002B3FF42FAF08F10803E0E7AFF300808C
:102B200061436F63A787D23FB3C8608B288AC63FD3
:102B3000FB799F501344D33F0000F07F11790700C9
:102B4000107907000000F83FE03507008C79070096
:102B500080790700B8F1000F40F3B1840F900A901C
:102B6000069BCDF82CA05344069300230E93249B80
:102B7000092B87D900230127CDE924334FF0FF33F8
:102B80000C970793049B00215964079B11930498A9
:102B90004FF0DCF80590002800F0E185079B0E2B34
:102BA0008CBF002707F00107DDE904321A64002F0B
:102BB00000F01B810B9A002A40F34A81BC4E02F0C0
:102BC0000F03D4054FEA221806EBC303D3E90067CD
:102BD00040F17083B74B08F00F080325D3E90823B1
:102BE000DDE90801FDF79EFDCDE91201B8F1000F06
:102BF00012D0DFF8C09218F0010F08D030463946E5
:102C00000135D9E90023FDF763FC06460F465FEA6C
:102C1000680809F10809EED132463B46DDE91201A8
:102C2000FDF780FD804689460F9B43B10022A24BF1
:102C300040464946FDF7BEFE002840F0478428463E
:102C4000FDF7DCFB42464B46FDF742FC9B4B002266
:102C5000FDF788FA079B0646A1F15077002B00F09C
:102C6000AB80079B0B9C1293059B404612995D1C01
:102C7000CDE914678E4E06EBC10353E90212CDE98C
:102C800016124946FEF720F900F13007FDF7B6FBB2
:102C900002460B4640464946FFB2FDF761FA8946B7
:102CA0000C998046DDE91623002900F00F810020F1
:102CB0008349FDF737FDDDE91423FDF751FA059E41
:102CC00042464B46377006460F46FDF791FE0028F8
:102CD00040F02F850023CDF858A0CDF850B09A468B
:102CE000DDF848B012942BE00AF1010ADA4580F2CF
:102CF000BD84304639460022724BFDF7E9FB0022C5
:102D0000704B06460F4640464946FDF7E1FB8946B3
:102D10008046FEF7D9F80446FDF770FB02460B46E5
:102D2000303440464946FDF71BFA32463B4605F82B
:102D3000014B80468946FDF73DFE002840F09C840B
:102D400042464B4600205C49FDF70AFA32463B46B4
:102D5000FDF730FE0028C7D0DDF850B02F46129C9A
:102D6000059902E08F4200F05F843A4617F8013D72
:102D7000392BF7D00133DBB23B70DDF814800592BC
:102D80006BE101230F9308F1FF33002BBFF667AE11
:102D9000C8F101030A930023069362E62846FDF773
:102DA0002DFB42464B46FDF793FB0022434BFDF7BC
:102DB000D9F90646A1F15077404649460022424BD8
:102DC000FDF7CEF932463B4680468946FDF710FEB8
:102DD000002840F0AD8340464946324607F10043A3
:102DE000FDF7E8FD002840F0D5810B9A199B0E2ACB
:102DF00002DC002B80F2AD810C9A002A00F0B58035
:102E0000249A012A40F38583079A0E9B551EAB42F4
:102E1000C0F2C782002AA3EB050580F25B840A9BFF
:102E2000079AA3EB0208C9E25046FDF7E7FA3246DB
:102E30003B46FDF7B5FD00287FF4F3AD0AF1FF3AFC
:102E4000EFE5C3F1200306FA03F0B7E501271FE61B
:102E500000F0A3820B9B164E5D4205F00F0306EBBC
:102E6000C303DDE90801D3E90023FDF731FB2E118F
:102E7000CDE9120100F052840E4C00230225804659
:102E80008946F00709D5404649460135D4E9002373
:102E9000FDF71EFB3B4680468946761004F1080488
:102EA000EFD1002B7FF4C0AEDDE91289BCE600BF94
:102EB000E0350700B83507000000F03F00001C4077
:102EC0000000E03F0000244000001440DDE9140150
:102ED000FDF7FEFA059B1F70129B012BCDE90C013B
:102EE00000F00984129F059BCDF840A01F440022EA
:102EF000AA4B40464946FDF7EBFA89468046FDF766
:102F0000E3FF8246FDF77AFA02460B460AF1300AE1
:102F100040464946FDF724F905F801ABAF4280462B
:102F20008946E4D1DDF840A000229D4BDDE90C018B
:102F3000FDF718F942464B46FDF73CFD002840F0EE
:102F40007B8300209649DDE90C23FDF709F9424611
:102F50004B46FDF74DFD002840F01982199B002BD0
:102F600003DB0B9B0E2B40F3F58000230E9DDDF859
:102F700028801E460C93B8F1000F0DDD069900293C
:102F80000B4609DD41450A9AA8BF4346D21AA8EB71
:102F90000308CB1A0A9206930E9B53B10C9B13B1F4
:102FA000002D40F01E8259460E9A04984FF0DCF82E
:102FB0008346012104984EF0F7FF0746BAF1000F4F
:102FC00040F06381249B012B40F37A810123069911
:102FD0000B4413F01F0308D0C3F12002042A00F3AE
:102FE000B5810AD0C3F13C0300E01C230A9A98443F
:102FF0001A440A92069A1A4406920A9B002B05DD8F
:1030000059461A4604984FF009F98346069B002B4F
:1030100005DD39461A4604984FF000F90746249B0F
:10302000022B0F9BD4BF00250125002B40F0BE8052
:10303000079B002B24DC1DB3079B002B00F08F8126
:10304000259BDDF81480DC43394604984EF0A4FE3D
:103050001EB1314604984EF09FFE594604984EF03A
:103060009BFE00220599631C0A70269A1360289B18
:10307000002B3FF47FAC404619601BB0BDE8F08FD9
:103080000C9B002B00F0AF80B8F1000F00F3C08163
:10309000BAF1000F40F0D382B146059D079C6B1E2C
:1030A0001C44029B089403F00103049C0A933946D4
:1030B00058464EF0B5F83146824658464FF022F950
:1030C0004A463946804620464FF03CF9C2680146E0
:1030D0000AF13003002A40F0A281CDE906035846E8
:1030E0004FF010F90699069020464EF055FE249BAD
:1030F000069A52EA0301079B40F0C2810A9A002A0D
:1031000000F0F282B8F1000FC0F2AD81089AA84633
:10311000AA4208F8013B00F0D282594600230A2255
:1031200020464EF043FE4E45834631464FF00003A5
:103130004FF00A02204600F09D814EF037FE4946CE
:10314000064600230A2220464EF030FE45468146C0
:10315000ADE7144E0B9B06EBC306D6E90034CDE970
:103160000234259B002B80F2E881079B002B00F3A3
:10317000E481079B73B900220B4BDDE90201FDF7E7
:10318000A7F902460B46DDE90801FDF71DFC002802
:1031900000F0CE8100273E4652E700BF00002440E9
:1031A0000000E03FE0350700000014403946584673
:1031B0004FF0A8F80028BFF63BAF0B9B59460A22F8
:1031C0000498013B0B9300234EF0F0FD0C9B8346CB
:1031D000002B40F09282119B002B119B079302DC85
:1031E000002D7FF429AFDDF814800125079CDDF860
:1031F000109007E0594600230A2248464EF0D6FDBB
:1032000001358346394658464EF00AF8A54200F18A
:10321000300308F8013BEDDB079A0025002ACCBFFC
:1032200090464FF00108059A9044594601220498AF
:1032300002934EF0F3FF394683464FF063F80028BF
:1032400040F3E481059A02E0904500F0D48118F83B
:10325000013CC24608F1FF38392BF5D001330B9CF5
:1032600088F80030394604984EF096FD002E00F0A4
:10327000C8812DB1B54203D0294604984EF08CFD8B
:10328000DDF81480CDF814A0E3E601465246049818
:103290004EF06AFF249B0746012B40F395804FF0C8
:1032A000000A3B6907EB830318694EF029FEC0F161
:1032B00020038CE6DDE908340225CDE9123495E4DB
:1032C000029B002B7FF482AEDDE90212C2F31303EE
:1032D000002B7FF47BAEAD4B134033B10A9B01331F
:1032E0000A93069B013306930123BAF1000F40F0C5
:1032F000F9819A466AE601230C93259B0B9A1344A5
:1033000011930133012B1D460793B8BF0125172DDB
:1033100040F31382012204235B001146013203F1C2
:103320001400A842F8D9049B596430E401230C939B
:10333000259B002B40F3BE801D4611930793E6E7C3
:1033400000230C93D9E700230C93F1E7C3F11C038E
:103350000A9A19441A4498440A9206914DE639464D
:10336000052204984EF022FD0746584639464EF095
:10337000C9FF00287FF764AEDDF81480059B0B9C25
:10338000013301340593312388F800305CE63A4676
:1033900017F8013D302BFAD0EFE40225DDE908896A
:1033A00042E40E9B0E95EB1A00259A44DDE90632A5
:1033B000134406930A9B984613440A9301210498E8
:1033C0004EF0F2FD0646D6E5029B002B7FF467AF78
:1033D000DDE90201C1F313030A46002B3FF47BAF82
:1033E0005DE7049C31462A4620464EF0BDFE064667
:1033F0005A46204631464EF005FE59468346204641
:103400004EF0CAFC0E9B5B1B0E933FF4D2ADCAE597
:103410003146424604984EF001FF064638E60498CD
:1034200006934EF0B9FCB8F1000F069B08DB029A38
:10343000249902F0010248EA010852EA08022ED15A
:1034400059460122049802934EF0E8FE394683461D
:103450004EF058FF0028029B40F36581392B00F0A5
:1034600031810AF13103AA460B9C35464E460AF8D3
:10347000013BF7E64EF09AFC45460646814616E6C5
:10348000B8F1000FC0F25E81249948EA01080A9958
:1034900051EA080800F05681002A7FF737AE392B31
:1034A00000F01081AA46013335460B9C4E460AF8BF
:1034B000013BD7E6012325930793FFF763BBC8F1D0
:1034C000010306900F900A93FFF74ABB079B002B5E
:1034D0003FF464AC119B002B7FF787AC0B9A4046FE
:1034E00049461293541E2A4B0022FCF7F1FF8046F6
:1034F0008946681CFCF782FF42464B46FCF7E8FF12
:103500000022244BFCF72EFE0646A1F15077FFF770
:10351000ABBB109A002A00F08B8003F23343069A6B
:103520000E9D1A4406920A9A90461A440A9245E75A
:103530000027DDF814803E4620E7DDE90889DDE953
:10354000022340464946FDF7EDF8059FFDF7BCFC18
:103550000546FCF753FFDDE90223FCF7B9FF0B46F4
:10356000024649464046FCF7FBFD05F1300307F8EB
:10357000013B079B012B00F08980CDF818B0012694
:10358000DDF81C90DDE902AB22E000BF0000F07F17
:103590000000244000001C4052465B46204629465D
:1035A000FDF7C0F80136FDF78FFC8046FCF726FFDB
:1035B00052465B46FCF78CFF0B46024629462046E6
:1035C000FCF7CEFD08F13003B14507F8013B5AD0B6
:1035D0000022704BFCF77CFF0022002304460D46BE
:1035E000FDF7DEF90028D7D0DDF818B0DDF814803B
:1035F0000B9C059731E50B9C3123059A0134137020
:1036000030E6DDF81480CDF814A026E503D1029B46
:10361000DB073FF517AE18F8013CC24608F1FF384A
:10362000302BF8D00B9C1DE601343123FFF7A4BBEF
:10363000189BC3F1360372E70599FFF796BB7168D3
:1036400004984EF083FB0546002800F08F80336914
:1036500006F10C010C3002339A00FDF7CBFA294633
:10366000012204984EF0DAFD814616E5DDF858A0F7
:10367000DDF850B0FFF7B9BBDDF81480DDF850B0CD
:10368000129C0595E9E4DDF818B0454602460B4664
:10369000FCF768FD80468946DDE90223FDF7A8F9BD
:1036A00048B940464946DDE90223FDF779F900288B
:1036B0009CD0E9079AD50B9C0599FFF756BB354678
:1036C0004E46B2E5A84639233546059A4E4608F8D7
:1036D000013BBCE5069B134406930A9B98461344A2
:1036E0000A936BE69A46DCE5392BEBD0B8F1000F74
:1036F0003FF7B7AEB7E62F4616E4314600230A225D
:1037000004984EF053FB119B0646002B119B079328
:103710003FF7BAAC002D7FF48FACB5E4DDE9128938
:103720000225FFF781BA7FF49EAEDA077FF59BAEE4
:1037300094E6DDF8148005958FE40021049B59641C
:10374000FFF725BA002A3FF77BAE8CE6049B0025E5
:10375000184629465D644EF0F9FA059068B90E4B9B
:1037600000224FF4D5710D4847F0DEFA02460A4BAD
:1037700040F2EA21094847F0D7FADDE904322595FD
:103780001A644FF0FF33012211930C920793FFF755
:103790002CBB00BF0000244090790700A4790700EB
:1037A0002DE9F04F1C46794B9FB00E46002583460D
:1037B000186807921A95089049F0F8F80021024617
:1037C00033460020CDE904019846199313F801AB64
:1037D000BAF12D0F5ED801A151F82AF0733900001B
:1037E00095380000953800009538000095380000A5
:1037F0009538000095380000953800009538000095
:10380000C9370000C9370000C9370000C9370000B8
:10381000C937000095380000953800009538000041
:103820009538000095380000953800009538000064
:103830009538000095380000953800009538000054
:103840009538000095380000953800009538000044
:10385000953800009538000095380000C937000001
:103860009538000095380000953800009538000024
:103870009538000095380000953800009538000014
:103880009538000095380000473F0000953800004B
:10389000613F000000230993BAF1300F00F0688205
:1038A00000230A93AAF13003092B00F25684002763
:1038B00040463D463C460130082C07EB870104F1A9
:1038C000010405EB850C199090F800A0CCBF03EB28
:1038D000410703EB4C05AAF13003092BEBD90899FA
:1038E000089249F091F8089A8146002850D1199B16
:1038F00001460894981819909B5CA3F13002092A9C
:1039000000F2F082013192461998002A40F0F884C2
:10391000431C19934378F0E74FF0010EB31C199341
:10392000B378A3F1300CBCF1090F00F2F582199ABB
:10393000302B0B9240F02B83013219921378302BED
:10394000FAD0A3F131000B92082840F21E83002226
:103950000C9254BB0A9A0A4340F09882BAF1000FC5
:1039600007D1692B00F0398340F318826E2B00F0E9
:103970001B82079B4FF000084FF0000903B11E6047
:10398000404649461FB0BDE8F08F00BF087C0700E5
:103990002AF02002002153460894452A89468A4687
:1039A00000F0AD820C91002CD4D0089A2846A24693
:1039B0001346002A08BF23460893FCF70FFD0B4669
:1039C0000246102CCDE904230C9BA8BF4FF0100A2F
:1039D000092CA3EB09030B9317DD544B03EBCA032C
:1039E00053E91223FCF774FD024638460F4616468B
:1039F000FCF7F4FC02460B4630463946FCF7B2FBB6
:103A00000F2CCDE9040100F3E1810B9B002B00F0AA
:103A100097820B9B40F3A782162B40F39A84C4F144
:103A200025030B9A934280F2DA84A4EB0A0616442B
:103A300016F00F000AD03D4901EBC001DDE9042377
:103A4000D1E90001FCF744FDCDE9040136F00F0394
:103A50004ED0B3F59A7F00F34684102B4FEA23161D
:103A600040F3B285DFF8C8E04FF0000CCDF82890A5
:103A70007746E246F146DDE9042316F0010F1046D1
:103A800019464FEA66060AF1010A07D0D7E9002372
:103A9000FCF71EFD4FF0010C02460B46012E07F10C
:103AA0000807EAD1CE46DDF82890BCF1000F01D01E
:103AB000CDE90423059B0EEBCA0E1E4EA3F15473F1
:103AC0000593DDE90423DEE90001FCF701FD1A4B53
:103AD0000A460B40B342CDE9040100F204841749C1
:103AE0008B4240F2FE844FF0FF33154ACDE9043299
:103AF00000230A932346089A4146584600954EF003
:103B0000A7F91590002800F0EE830B9A4FF0000AF9
:103B10000C9B002ACDF820A0A9EB0303A8BF00232B
:103B20000C9322EAE2731493E2E000BFE035070051
:103B3000B83507000000A07C0000F07F0000907CFA
:103B4000FFFFEF7FD21A1F2AA4EB020400F3C68204
:103B5000012300259340984626443C440A9BA742F3
:103B60001E443B46A8BF2346B342A8BF3346002BA2
:103B700002DDE41AF61AFF1A0C9B002B00F35482A4
:103B8000002C00F36A820B9B002B00F39D82002E19
:103B900000F38E82002F08DD51463A4658464EF01B
:103BA0003DFB8246002800F08C824A461A9958460E
:103BB0004EF0C8FB0890002800F08382089A00238A
:103BC000D168D3600D9151464EF09CFB0028C0F2A5
:103BD000C584059F00F02284514608984EF042FDAE
:103BE00000224FF0804304460D46FCF7EDFE00280E
:103BF00000F00A820D9B002B40F07C82049B002B7E
:103C000040F06183C7F31303002B40F0E6820022EB
:103C1000AB4B20462946FCF7CDFE002840F0F5834B
:103C20002046A84B29460022FCF752FC03460C46CE
:103C30000E90CDE9123401F100430F93A24EA34B35
:103C40003E409E42DDE90E4500F05B820A9B23B3B5
:103C5000B6F1D46F21D8DDE9127897A3D3E9002318
:103C600038464146FCF7B0FEA0B141463846FCF765
:103C7000A1FF012838BF0120FCF7B0FB0D9BCDE967
:103C80001201002B40F0378301F100431690179387
:103C9000DDE9164505F1D6639D1BDDE91078384650
:103CA00041464EF0FFFB02460B4620462946FCF7F4
:103CB0000FFC3A464346FCF755FA0C46CDE90401A1
:103CC000814B2340B34203D10A9B002B00F08E822C
:103CD0001A9958464EF060F8494658464EF05CF83E
:103CE000514658464EF058F8089958464EF054F848
:103CF000159C584661684EF029F88146002800F06E
:103D0000E081226904F10C010C3002329200FCF7D0
:103D100071FF1CAB584601931BAB0093DDE90434E3
:103D20001A46CDE9103423464EF03CFC1A90002888
:103D300000F09C81012158464EF036F98246002859
:103D400000F0BF811B9B002BC0F2AE810C9A149E29
:103D50009F180A9A1C9C9B1A5D4A2344C4F136049E
:103D6000013B9342FFF6EEAE012300259846F3E6B1
:103D700098F8013003F0DF03582B00F075824346BA
:103D80000133199393F800A0BAF1300FF8D0984698
:103D9000BAF1000F7AD001230A9383E5492B00F092
:103DA0001C814E2B7FF4E5AD4A4919A84FF006FC63
:103DB00000283FF4DEAD199B1B78282B00F07E8392
:103DC00045484FF007FD8046894663E0A4EB0A06AC
:103DD0000B9B1E44002E3FF72BAE3FF489AE76427C
:103DE00016F00F020AD03D4B03EBC203DDE90401DC
:103DF000D3E90023FCF796FCCDE9040136113FF42A
:103E000077AE1F2E3FDC16F01003354F4FF0000C3D
:103E100018BF6A230A93DDE9042316F0010F104648
:103E2000194607D0D7E90023FCF752FB4FF0010CED
:103E300002460B46761007F10807EED1BCF1000FE1
:103E400001D0CDE904230A9BA3B1DDE90401C1F34C
:103E50000A52C2F16B03002B0ADD1F2B40F3FA83D9
:103E60000020342B049040F321844FF05C730593C1
:103E70006A230A9300220023DDE90401FCF790FD88
:103E800000283FF437AE2223CBF800304FF0000873
:103E90004FF00009079A0AB1199B1360099B002B88
:103EA0003FF46EAD09F100434046994649461FB0C4
:103EB000BDE8F08FAFF300800000C0FFFFFFDF41DF
:103EC0000000F03F0000E03F0000F07F0000E07FD6
:103ED00002FCFFFF7C7A070088870700E0350700B7
:103EE000A83607004FF0010A23F02002452A7FF48C
:103EF0002EAD44EA01030A9A13433FF43AAD199EEA
:103F0000731C199373782B2B00F023812D2B3FF416
:103F100003AD4FF0000E04E5002219960C9218E54F
:103F20001C9A03F2334304921D9A22F4801242EA4F
:103F300003530593210703D5059B43F000430593E5
:103F4000DDE90489A6E70023099308F10103199329
:103F500098F801A0BAF1000F3FF40BAD98469BE42E
:103F600001230993F1E71633FFF630AF0C9BA9EB61
:103F70000309B34B03EBC903DDE90401D3E90023D3
:103F8000FCF7D0FB8046894684E7A3F1300C0B9BFD
:103F9000581C19905B78A3F13002092A00F2D181F4
:103FA00001300CEB8C0C199003EB4C0C0378ACF14A
:103FB000300CA3F13002092AF2D90B9A801A082892
:103FC00040F3BF8144F61F620C92BEF1000F3FF434
:103FD000C0AC0C9A52420C92BBE49A4919A84FF01B
:103FE000EDFA00283FF4C5AC199B19A89649013B8E
:103FF00019934FF0E3FA10B9199B013319934FF05D
:104000000008DFF8489245E7914B204629460022F8
:10401000FCF75EFA0D9BCDE91201002B65D101F191
:1040200000430E900F9309E651461A4658464EF04B
:104030009BF88246002844D001461A9A58464DF013
:10404000E1FF00283DD00D9058461A994DF0A4FE8E
:104050000D9B002C1A937FF796AD22461A9958466D
:104060004EF0DCF81A9000287FF48DAD4F460546DF
:1040700022234FF00008DFF8D491CBF80030294616
:1040800058464DF089FE394658464DF085FE51465A
:1040900058464DF081FE159958464DF07DFE089921
:1040A00058464DF079FEF5E6149A0C9FD61A50E664
:1040B0004946324658464EF0B1F8814600287FF412
:1040C00069AD4F461A9DD3E74946149A58464EF0BB
:1040D0004BF8814600287FF45AADF2E75D4AD31AC7
:1040E000012202FA03F5904636E5DDE91234CDE906
:1040F0000E34A3E50023584CCDE90E34CDE912343B
:104100009CE5A7F15473514F0593DDE90445204622
:1041100029464EF0C7F9DDE90E23FCF7D9F92B4605
:104120002246FCF71FF84D4B0F409F42CDE904019A
:1041300040F2DD8003F15473DDE91001994202D1B0
:10414000B0F1FF3FBDD04FF0FF33454ACDE9043217
:10415000BEE54FF0000EFFF7E1BB089940460B9219
:1041600048F052FC0B9A089048B10022534617467B
:10417000924615461146914614460892B4E6199B9C
:10418000981819909B5C302B40F02781024611460D
:10419000013219921378302BF9D0C0F1010001449B
:1041A000A3F13102082A10D8DDF864800025A3F1BC
:1041B000300A01F10109012440462F4605EB85052F
:1041C00000210AEB4505FFF7A3BB4FF000094FF0B4
:1041D000010A4C464F464D4686E60023214CCDE968
:1041E0000E3400231C4CCDE9123427E5DDE91256CC
:1041F000C4F3130728463146FDF72CFDFCF73AF9C6
:1042000002460B4628463146FBF7AAFF049D0D9E49
:1042100004462E430D46374343D107A3D3E9002379
:10422000FCF7C8FB00283FF453AD4F461A9DDDE96B
:10423000048924E7AFF300809535A094FFFFCF3FBA
:10424000E0350700707A0700747A07000000F07FFD
:104250000000E03FE2FBFFFF0000F03FFFFF9F7C1C
:10426000FFFFEF7F0000F0BF099B19A90294584699
:1042700001931AABB04A00931BAB4EF0A3FE10F0B3
:10428000070504463FF402AE062D7BD1079A12B112
:1042900008F1010313604FF000084FF00009FFF729
:1042A0006FBBA1A3D3E90023FCF784FB0028BCD19A
:1042B000204629469EA3D3E90023FCF799FB00285A
:1042C0003FF406ADB1E7049B012B86D1002F84D1CA
:1042D0004F461A9C222325464FF000084FF0000954
:1042E000CBF80030CBE62223CBF8003087E601F193
:1042F00054740594E4E4DDE91234CDE91634C7E4DE
:10430000012900F0138204EB010E0EF1FF3CCDF801
:104310002CE003E04FEA4E05A4450BD0082C05EB3A
:10432000850E04F10104F5D907EB8703102CD8BFE3
:104330005F00F1E7DDF82CE0082C894416DC7446B8
:104340003CE744F61F629445A8BF9446CDF830C0C0
:104350003BE60B98794901EBC001DDE90423D1E983
:104360000001FCF7B5F88046894693E5BEF1100FD1
:1043700074464FF00001DCBF07EB870702EB4707ED
:10438000FFF7C6BA1A9A3AB135211CA84EF094F933
:1043900058461A994DF000FD013D1B9B042D3FF638
:1043A000C9AD01A252F825F0213F0000D143000021
:1043B000CB430000BD430000213F00004FF0FF331E
:1043C0006FF00040CDE90430B4E55D4B0593B1E5F5
:1043D0001C9B04931D9B0593ACE50899E0E6C4F192
:1043E0000F04564D05EBC401DDE90423D1E90001BA
:1043F000FCF76EF80B9B1C1B05EBC405D5E90023ED
:10440000FCF766F88046894644E500234D4CCDE92B
:104410000E3400234C4CCDE912340FE43B460D988A
:10442000C4464F46AE464949C3F31302DDE910893D
:1044300000285BD08A4200F0FB80B5BB049A1CEADE
:10444000020F35D04046494604934EF02BF80A9BA4
:1044500004460D46002B00F01F81049BC3F30A5352
:10446000C3F16B06002E40F36481394C002204EB4B
:104470000653FCF72DF802460B4640464946FBF72B
:1044800071FE1A9C8046894640464946314B0022BF
:10449000FCF71EF80B4625468046034389467FF409
:1044A000EEAD2223CBF80030E9E51EEA030FC9D1B7
:1044B0001A9C0A9B2546002BE6D1E0E519A81CAA08
:1044C00025494FF095F805287FF47AAC1D9B43F001
:1044D000FF4343F4E00305931C9B0493DDE9048947
:1044E000D8E402F154730593FFF702BB002A71D19F
:1044F000DDE904452246002C40F0B4800A9A002AE7
:1045000040F0F08025F00044240D2405A4F580142B
:104510001A9D6FEA14536FEA035305934FF0FF336C
:104520000493DDE90489AAE59535A094FFFFDF3FF8
:1045300035E5AF350000E03F947A0700E03507002D
:104540000000F07F0000E0BF0000E03FFFFF0F0031
:104550000000F03F00005039807A07000D9B4F4665
:10456000DDE90401DDE910890343A1D1C1F313039F
:10457000002B9DD121F00044240D2405B4F1D66F09
:10458000264695D9089A536913B91369012B8FDD13
:104590000899012258464DF041FE514608904DF0D1
:1045A000B1FE002884DD0A9B002BAFD0A6F5801356
:1045B0001A9C6FEA13536FEA035305934FF0FF33CE
:1045C0000493DDE904895FE74FF0000ADFF87CE13E
:1045D000FFF770BA002D48D1049A1CEA020F3FF48D
:1045E00067AF4046494604934DF05CFF0A9B002BA1
:1045F00040D0049BC3F30A53C3F16B06002E40F373
:10460000A280534C002204EB0653FBF761FF0246E5
:104610000B4640464946FBF7A3FD00220023804697
:104620008946FCF7BDF900287FF453AE1A9C2BE7AE
:10463000DDE904010A9A0446002A40D1024601320B
:104640006DD0BEF1000F7FF430AF14EA0C0F3FF4D1
:104650002FAFF7E64FF0FF3202FA03F3049A1A4045
:10466000049205E4BEF1000FB7D01EEA030F3FF439
:104670001FAFB6E702460B4640464946FBF770FDC2
:104680001A9C00220023804689462546FCF788F9BB
:1046900000283FF4F4AC1DE6404649462B4622462E
:1046A000FBF760FD1A9D80468946E8E4C2F14B02A3
:1046B0004FF0FF3393400B400593FFF7D9BB254ADA
:1046C0001A40B2F1D46F21D9611CBAD122498B4270
:1046D0003FF4F8AC02F58013059300230493DDE961
:1046E0000489E5E61B4E1E40B6F1D66F3FF65EAF7D
:1046F0001A9DB6F15C7F2C463FF6C6AE22234FF0E2
:1047000000084FF00009CBF80030B8E4100D4FF06E
:10471000FF31C0F16B0081408C4292D1DAE70E4A42
:1047200093423FF4CFAC01321A40D3E704F1010EBB
:1047300002E64046494622462B46FBF713FD1A9CEB
:1047400080468946A0E602460B4662E7B835070078
:104750000000F03F0000F07FFFFFEF7F000000004F
:104760002DE9F04F84468E4687B0002942D032A30F
:10477000D3E9002332A7D7E9006733A5D5E900457F
:104780000FF2CC0BDBE900AB33A1D1E90001CDE99D
:10479000042333A3D3E90023CDE9022332A3D3E9D1
:1047A0000023CDE9002332A3D3E900234FF0000812
:1047B0004FF00009CCE90A01DDE90401CCE90C0164
:1047C000DDE90201CCE90E01DDE90001CCE91001CF
:1047D0000020CCE90089CCE90289CCE90467CCE966
:1047E0000645CCE908ABCCE91223CCF8D0E007B001
:1047F000BDE8F08F20A3D3E9002321A7D7E9006704
:10480000CDE9042320A5D5E9004521A3D3E9002360
:104810000FF2840BDBE900ABCDE9022320A1D1E943
:10482000000121A3D3E90023CDE9002320A3D3E98C
:104830000023BBE7AFF30080310BC0FF672633676F
:10484000D89E05C15D9DBBCB07D57C362A299A62CF
:1048500017DD70305A01599139590EF7D8EC2F15E0
:1048600011155868874AB48EA78FF9640D2E0CDB9A
:10487000A44FFABE1D48B547D182E6AD7F520E5116
:1048800008C9BCF367E6096A3BA7CA8485AE67BB63
:104890001F6C3E2B8C68059B2BF894FE72F36E3CCC
:1048A000F1361D5F3AF54FA56BBD41FBABD9831FB8
:1048B00079217E1319CDE05B38B500EA0104E207E7
:1048C00015D5104D2878B0FA80F04009287000F016
:1048D000F7F829780C4A0D4B0D4800290CBF1146FA
:1048E000194655F055FD002029781DF045F9A3071C
:1048F00006D5012108461DF03FF90122054B1A702B
:1049000038BD00BFDA7300208D8907008A8907004F
:1049100091890700DB7300202DE9F041B4B012F05B
:10492000CBFD002120220646684646F029FF04F010
:1049300099FA4A4D28604A481DF088F8014610B19E
:10494000484855F025FD1DF043F8014610B1464892
:1049500055F01EFD00214FF4004045F047FC01F0EA
:1049600055FA014628B1414855F012FD34B0BDE872
:10497000F08100F0A7FC002868D13D4855F008FD03
:1049800001F030F9A0B318AF384601F053F90446EE
:1049900070BB384855F0FCFCBDF8803000978DF8AE
:1049A00004309DF8CA3002948DF817308DF80C4011
:1049B00004948DF814402BB122AB0293BDF8C8309B
:1049C0008DF80C309DF8CC3031468DF816309DF8BE
:1049D000CB306A468DF81530012327488DF8183002
:1049E00020235CF0C4F9011E34DA244855F0D0FCD1
:1049F000234E244F4FF40040002145F0F7FB33785D
:104A0000002BF7D008AA90461F4B03F1100C144658
:104A100018685968083303C463452246F7D11B78E8
:104A20002F22002123700DF1310046F0A9FE4146EE
:104A3000286856F037FF014610B1384655F0A8FCFB
:104A40000021012031701DF097F8D3E70F4855F091
:104A50009FFC8BE70E4855F09BFCC9E7403B0020CC
:104A6000B9480000A4890700C2890700DD89070052
:104A70000B8A0700788A0700020056519C8A0700BB
:104A8000DB730020E78A0700F88A07003C8A0700EA
:104A9000CF8A07007FB5084803685B0708D0074B3B
:104AA0004FF482510593022304AA049355F0DDFAD2
:104AB00007B05DF804FB00BF28130020098B070036
:104AC00008B5064B02461B680021586820F092F991
:104AD00008B1FFF7DFFF012008BD00BF4808002034
:104AE0002DE9F04F944BB7B0994200AF07D0023395
:104AF000994200F09880DC37BD46BDE8F08F8468AD
:104B000048228E4907F14000FCF774F84FF49E03E9
:104B1000012607F18805C7E909353D6287F840603D
:104B200087F844603E23214694F8202007F14A008C
:104B300046F092FD94F8203004F12601A7F84830A1
:104B400094F82C2007F16C00062A28BF0622FCF7F7
:104B500051F894F82C3087F87860062B28BF06238C
:104B6000A7F86A3094F823303BB1B34252D0022BFD
:104B700052D0032B14BF0423062387F8793094F80E
:104B800022307B67012387F8723094F8212022B10C
:104B9000D11A4A424A4102FA03F387F873300123DB
:104BA00087F87C3094F925303C46C7F880300023E4
:104BB00029464F22384687F8843007F12C0542F009
:104BC00017FE0FCC0FC523685D492B6007F140022B
:104BD00007F12C0043F08CF8BB6BBB84F0B959484B
:104BE00003685A0787D0FB6B574A6C4688B0002B86
:104BF00008BF13466A465549C2E905134FF40073CE
:104C00009383534B4FF4E25142F8103F55F02DFA85
:104C1000A54670E70423B0E70323AEE707F12000C1
:104C200000F0CAFE67E784684449482207F1400063
:104C3000FBF7E0FF4FF49E0307F18801C7E9093154
:104C4000396203F16D73266803F20123FB61002EC4
:104C50003ED040F201533D464F223846A7F88430FB
:104C600007F12C0442F0C4FD0FCD0FC42B6834496A
:104C7000236007F1400207F12C0043F039F8D0B966
:104C8000304803685B071CD0FB6B2F4A6C4688B02A
:104C9000002B08BF13466A462C49C2E905134FF49E
:104CA000007393832A4B4FF4E25142F8103F55F0C2
:104CB000DCF9A54605E0BB6B07F12000BB8400F0E2
:104CC0007BFE0120FFF7FCFE0020FFF7F9FE12E754
:104CD000B1464FF0010ADFF868B007F11C083D4605
:104CE000B96A18F8013B3846FA8C396287F8853082
:104CF000A7F8249087F8409087F884A007F12C0447
:104D000042F076FD0FCD0FC42B685946236007F1A2
:104D1000400207F12C0042F0EBFF0028B0D0BB6B43
:104D200007F12000BB84013600F046FE042ED6D1E8
:104D300000F0E2FFC5E700BF010056D15033070085
:104D4000343B0700281300202D8B0700348B07000D
:104D50000300000170B58CB001236C46C288016865
:104D6000064607AD68468DF8183042F041FD0FCC7D
:104D70000FC52368074906AA07A82B6042F0B8FFB1
:104D800020B100200A9BB3800CB070BD6FF004000E
:104D9000FAE700BF103B07002DE9F047B4B00378F5
:104DA00005460C468C4E00AF1BB14378013B042BEB
:104DB00012D9336803F00703022B0AD9874B4FF44B
:104DC00086517B67022384483B6707F1700255F0E8
:104DD0004CF940F20113CBE001230B7043784B7088
:104DE000336803F00703022B0AD97D4B4FF4865139
:104DF0007B67022330463B6707F1700255F035F9B7
:104E00006B78012B40F0838012F056FB3C228046E9
:104E1000002107F1240046F0B3FC336803F00703D8
:104E2000022B0AD96F4B4FF486517B6702236A48E5
:104E30003B6707F1700255F018F90125257100F064
:104E4000D1FE38B9A0720123E070A370D037BD46FF
:104E5000BDE8F087A57207F1600000F0EBFEB7F83F
:104E6000809007F160014A4604F10E00FBF7C2FE94
:104E7000D7F8823041462363B7F886305A48A38674
:104E80000623E38597F8CC30A4F80C90A36397F839
:104E9000CA3084F83C5084F83D3007F124023C23AA
:104EA0005BF098FF80B1336813F0060F0AD04F4BC8
:104EB000FB6102234FF484514748BB6107F118029C
:104EC00055F0D3F80320BEE77B6A2572052B1CDD65
:104ED0004FF00409404684F8099007EB090112F0ED
:104EE000FDFA002805DA336813F0060FEAD0404BCC
:104EF000DEE77B6884F8405084F842505B68A4F891
:104F00004490C4F84630012332E06072FBE7023B74
:104F1000032B00F23C81DFE813F004002D003E007B
:104F20001B0112F0C9FA3368054603F00703022B90
:104F30000AD9304B4FF486517B67022326483B67E2
:104F400007F1700255F091F8002329461A462A48C5
:104F50005BF03CFF002329461A46284812F010F85F
:104F600010F1160F3FF435AF0028CCD040F20133DA
:104F700063806BE7336803F00703022BC3D9204B30
:104F80004FF486517B67022313483B6707F1700299
:104F900055F06BF8B7E712F08FFA20228046002117
:104FA00007F1240046F0ECFB336803F00703022B03
:104FB0000AD9144B4FF486517B67022306483B679E
:104FC00007F1700255F051F82B7EEBB90123012255
:104FD000E370A2703AE700BF28130020498B070056
:104FE000598B07006A8B070006005651818B07001A
:104FF000998B0700B08B07000300565101005651F2
:10500000C78B0700DD8B07002B7F002BDED0B5F8A8
:1050100020A007F160096E235246484605F122019F
:1050200046F01AFBB5F84230A7F880A0062B78D0DE
:10503000326812F0060F0ED06E4688B06A465E499E
:105040005E48C2E9051303234FF4C45142F8103FF0
:1050500055F00BF8B546EB6C87F8CC3095F854302A
:1050600093B1B5F856604623324605F1580107F171
:10507000880046F0F1FA95F85030A7F8C86033B1CF
:1050800095F85130002B54D1002387F8CA3095F899
:105090004A3023B195F84B309A1E5342534195F84C
:1050A000981087F8CB3009B195F89910484600F070
:1050B000EFFD002341461A4641485BF087FEB7F8F2
:1050C000803097F8CA2087F828300023C7F824904A
:1050D00087F83B20FB6287F830307B6387F83830F5
:1050E00032B107F18803FB62B7F8C83087F8303077
:1050F000012597F8CC30414687F83A3097F8CB3005
:10510000304887F8393087F83C50202307F12402D3
:105110005BF02DFE10F1160F3FF458AFB0B965806B
:1051200094E66B6CC7F88230B5F84830A7F8863043
:1051300091E7042B01D10123A7E7032B01D102231F
:10514000A3E7062B0CBF032304239EE703233EE7BC
:1051500012F0B2F93368054603F00703022B0AD9AF
:10516000194B4FF486517B67022314483B6707F1C4
:10517000700254F07AFF002329461A4610485BF06B
:1051800025FE00287FF4F2AE00F000FEECE6336866
:1051900003F00703022B0AD90C4B4FF486517B67AF
:1051A000022306483B6707F1700254F05EFF0123BB
:1051B00023706B7863700CE6F48B070028130020D3
:1051C00003005651020056511C8C0700368C070014
:1051D000F0B5EDB000AF06469C22002107F58A70BD
:1051E00046F0CEFA6022002107F1B40046F0C8FA7A
:1051F0004FF4B00207F15C0307F11805C7E90C236F
:105200002846B288316807F13804FB6242F068FE34
:1052100095E80F0084E80F002046254907F58A72BB
:1052200068F06DFC002838D1224803685B0711D074
:10523000E3686C4688B06A461F49C2E905134FF41B
:10524000007393831D4B4FF4E25142F8103F54F02A
:105250000CFFA54640F20123A7F8B6303C4638467D
:105260007A8EF96A07F1480542F0C2FA0FCC0FC5F1
:105270002368134907F1B40207F148002B6042F09C
:1052800037FD88B17B6D07F12C003B8600F030FBC9
:10529000002007F5DA77BD46F0BD07F1B40107F548
:1052A0008A70FFF779FDD9E76FF00400F1E700BFDE
:1052B000983B0700281300204A8C070003000001D8
:1052C0000C3C070098B500AF00F0C4FB034690B15A
:1052D0000E48026812F0060F0DD06C4688B06A4680
:1052E0000B49C2E9051303234FF4C45142F8103FA0
:1052F00054F0BBFEA5460748074B4360074B0361CC
:1053000012F06CFF0020BD4698BD00BF281300209E
:10531000778C0700443B0020E14A0000030056D18F
:1053200030B591B012F0C8F83C220021054601A822
:1053300046F026FA0123154C237400F053FC637CDD
:10534000D0B903F0FE03637429463C23104801AA38
:105350005BF040FD10B9019B052B10DC637C23F052
:10536000020363748023E37403210123094A0A487A
:105370000BF09EFE11B030BD43F00103E3E7637C08
:1053800043F0020363749DF83C30ECE7E411002025
:1053900006005651843A07008C3A070010B5FFF713
:1053A000BFFFBDE810404FF420320023014844F015
:1053B0004BBC00BF70190020B0B58CB002AF0CF030
:1053C00007F80346B0B12148026802F00702022A3A
:1053D0000DD96C4688B002AA1D49C2E90513032302
:1053E0004FF4C65142F8103F54F050FEA5462837FE
:1053F000BD46B0BDFFF794FF00F0F4FBD8B13C46CA
:10540000144D0FCD0FC438462B68236001230322AF
:1054100000931149114B0BF0A9FF03460028E6D079
:105420000A48026802F00702022AE0D96C4688B0F6
:1054300002AA0B49D1E70B4D07F114040FCD0FC49D
:105440002B6807F114002360E0E700BF2813002059
:10545000B18C0700983307008C3A0700843A0700A4
:10546000D58C0700AC330700B0B504460D4800AF3B
:10547000036803F00703022B0DD96D4688B06A4616
:10548000094BC2E9053103234FF4C65142F8103FDE
:1054900054F0FCFDAD460521204659F0DAFBBD462F
:1054A000B0BD00BF28130020FA8C07007FB5094863
:1054B000036813F0060F08D0074B4FF4845105938F
:1054C000022304AA049354F0E1FD6FF0FD0007B03D
:1054D0005DF804FB28130020218D07007FB50948E3
:1054E000036813F0060F08D0074B4FF4845105935F
:1054F000022304AA049354F0C9FD6FF0FD0007B025
:105500005DF804FB28130020548D070098B50F4860
:1055100000AF036803F00703022B15D90C4A0D4BAB
:105520006C4688B0022908BF13466A460A49C2E998
:1055300005134FF400739383084B4FF4E65142F880
:10554000103F54F0A3FDA546BD4698BD281300208A
:1055500019CF0800DE010900958D07000300000146
:1055600098B50F4800AF036803F00703022B15D965
:105570000C4A0D4B6C4688B0012908BF13466A4699
:105580000A49C2E905134FF400739383084B4FF4A3
:10559000E65142F8103F54F079FDA546BD4698BD4E
:1055A0002813002019CF0800DE010900D08D070064
:1055B0000300000170B503788AB004460E4607ADBB
:1055C000032B20D8DFE803F002191B1D11492846E0
:1055D00046F09EFF059563781E210493A37830461C
:1055E0000393E3780C4A0293237901936379009340
:1055F000A37954F0DAFE0AB070BD0849E7E708491C
:10560000E5E70849E3E70A212846074A54F0CDFEBA
:10561000E0E700BF088E07002A8E07000F8E070004
:10562000168E0700208E0700B9C40700F0B5144697
:1056300089B000AF0D4659F07AFB3946FFF7BAFF43
:1056400019480368C4B903F00703022B11D96C464B
:105650008AB06A46154BD561C2E905374FF400732D
:105660001384134B4FF4135142F8103F54F00EFDC6
:10567000A5462437BD46F0BD13F0060FF9D06E469F
:105680008AB06B460B4AC3E90754C3E905274FF4B8
:1056900000729A841A46084B4FF4325142F8103F78
:1056A00054F0F4FCB546E4E7281300204D8E0700C3
:1056B000040000016F8E070005000001F0B50C46E4
:1056C00093B000AF07F108051046294607F12806F8
:1056D000FFF770FF31462046FFF76CFF134B1B6846
:1056E00003F00703022B1DD96C468AB06B461049A4
:1056F000DD61C3E905160F4903F110027960381D19
:1057000003F11F0103F1230510F8016B01F8016F8C
:10571000A942F9D10849054819614FF4235154F0C1
:10572000B5FCA5464C37BD46F0BD00BF2813002090
:10573000978E07000002010304000002B0B588B094
:1057400000AF0C4659F0F3FA3946FFF733FF0D4826
:10575000036803F00703022B11D96D468AB06A462D
:10576000094BD461C2E905374FF400731384074B2A
:105770004FF4135142F8103F54F088FCAD462037E7
:10578000BD46B0BD28130020B68E070004000001FE
:1057900090B589B000AF59F0CAFA3946FFF70AFF51
:1057A0000C48036803F00703022B10D96C4688B03D
:1057B0006A46094B4FF4E651C2E905374FF40073CE
:1057C0009383064B42F8103F54F060FCA546243703
:1057D000BD4690BD28130020DB8E070003000001AA
:1057E000B0B588B000AF0C4659F0A1FA3946FFF7C2
:1057F000E1FE1448036803F00703022B11D96D463C
:105800008AB06A46104BD461C2E905374FF4007381
:1058100013840E4B4FF4135142F8103F54F036FCF2
:10582000AD4600220A4B0B481A600022002344F0C8
:105830000BFA4FF420320023074844F005FA2037D2
:10584000BD46B0BD28130020F58E070004000001FE
:10585000703B00204019002070190020B0B588B0BE
:105860001D4C00AFA9B1236813F0060F0ED06D4692
:1058700088B06A46194B2046C2E9053103234FF42C
:10588000C45142F8103F54F001FCAD462037BD46EC
:10589000B0BD134A106059F04AFA3946FFF78AFE44
:1058A000236803F00703022B11D96D4688B06A46BE
:1058B0000C4B4FF4E651C2E905374FF40073938364
:1058C000094B204642F8103F54F0E0FBAD46074834
:1058D00069F04AF8DAE700BF281300201A8F0700A2
:1058E000703B00203D8F070003000001701900206D
:1058F000B0B586B0294C2A492A4D6160036800AFD3
:10590000236183882868A382A8B92748036803F025
:105910000703022B04D8002420461837BD46B0BD2B
:10592000224B4FF486517B61022307F110023B6149
:1059300054F0ACFBEFE702225AF078F9C8B12146E7
:1059400028680EF091FC04460028E4D0164803684D
:105950005B07E1D06D4688B06A46154B4FF4C251E3
:10596000C2E90534032342F8103F54F08FFBAD46E3
:10597000D2E70D48036803F00703022B02D86FF04B
:105980000404C9E70B4B4FF486517B61022307F1F6
:1059900010023B6154F07AFBF1E700BF583B002056
:1059A0000C3A0700703B0020281300204E8F0700A0
:1059B0007B8F0700918F0700F0B5214E04463068B9
:1059C00087B090B91F48036803F00703022B02D881
:1059D000002007B0F0BD1C4B4FF486510593022305
:1059E00004AA049354F052FBF2E7184D0122294611
:1059F0005AF01CF980B1366827681822A488002163
:105A0000684645F0BDFE69463046CDE90157ADF820
:105A10000C400EF0E5FDDCE70A48036803F00703DD
:105A2000022B02D86FF00400D3E7094B4FF48651E4
:105A30000593022304AA049354F028FBF2E700BF65
:105A4000703B002028130020CD8F0700483A070044
:105A5000FC8F0700F0B597B002AF11F02DFD05687F
:105A60004D480CF081FD4D480CF098FD00200AF0E7
:105A700095FD4B4E04463368A8B113F0060F0ED0C7
:105A80006D4688B002AA474B4FF4C451C2E90530B5
:105A90000323304642F8103F54F0F8FAAD46204652
:105AA0005437BD46F0BD03F00703022B0AD93E4B25
:105AB0004FF48651FB6402233046BB6407F1480271
:105AC00054F0E4FA394A2C691046E17854F0D0FADF
:105AD000901C217954F0CCFA101D617954F0C8FA69
